:020000041000EA
:1000000000B5324B212058609868022188439860DF
:10001000D860186158612E4B002199600221596106
:100020000121F02299502B49196001219960352056
:1000300000F044F80222904214D00621196600F024
:1000400034F8196E01211966002018661A6600F04E
:100050002CF8196E196E196E052000F02FF8012189
:100060000842F9D1002199601B49196000215960AB
:100070001A491B48016001219960EB211966A021F2
:10008000196600F012F800219960164914480160C1
:100090000121996001BC002800D000471248134993
:1000A000086003C880F30888084703B5996A0420EC
:1000B0000142FBD001200142F8D103BD02B5186610
:1000C0001866FFF7F2FF186E186E02BD00000240BE
:1000D000000000180000070000035F00212200005C
:1000E000F4000018222000A00001001008ED00E03C
:1000F00000000000000000000000000074B24E7A12
:1001000000200420F7010010CB010010CD010010E9
:10011000C9010010C9010010C9010010C901001077
:10012000C9010010C9010010C9010010CF01001061
:10013000C9010010C9010010D1010010D301001045
:10014000C1010010C1010010C1010010C101001067
:10015000C1010010C1010010C1010010C101001057
:10016000C1010010C1010010C1010010C101001047
:10017000C1010010C1010010C1010010C101001037
:10018000C1010010C1010010C1010010C101001027
:10019000C1010010C1010010C1010010C101001017
:1001A000C1010010C1010010C1010010C101001007
:1001B000C1010010C1010010C1010010C1010010F7
:1001C000EFF30580103800BE00BE00BE00BE00BECA
:1001D00000BE00BEF2EB8871B8300410E4300410A9
:1001E0003802001090A31AE700201E49086006C8D4
:1001F00081F3088810471C480068002801D00020BF
:10020000F3E70DA40ECC002902D000F012F8F9E7B4
:100210001649174A002000E001C19142FCD115495E
:100220008847154988471549884700BEFDE701C939
:1002300001C29A42FBD37047E4300410C000002092
:10024000A00D0020C43D0410000004200000042084
:10025000C43D041000100420001004200000000021
:100260007047000008ED00E0000000D0A00D002065
:1002700064210220FD3D0010E5020010F53D001054
:1002800070B506000400084D0836642005F0B8FE7D
:10029000012221683000524200F05EF862680100DD
:1002A000280000F071F8F0E720B30010F8B507005F
:1002B000050000240A4E0837200000F07DF80400F5
:1002C000642005F09DFE012229683800524200F0AA
:1002D00043F86A680100300000F056F8ECE7C046C9
:1002E00028B3001030B585B003F0ACFE06F092FCE8
:1002F000051E25D10121012004F07CFF114C0121B4
:100300002060012004F076FFA5608022012502AB69
:1003100060600D4901930095230092000B4805F0A1
:10032000A1FC802203AB0A490193920023000095AF
:10033000084805F097FC05F031FD002005B030BD00
:1003400001F0F0FB901C002030B30010AD02001053
:100350003CB300108102001070B50D0006001100C2
:10036000280005F097F901280AD1346800230134E8
:10037000002200212800346004F070FF200070BDCE
:1003800001246442FAE7C04670B50D000121060061
:1003900014001000494205F07DF92A00310005489B
:1003A00003F022FF002300220021200004F056FF6A
:1003B00070BDC04648B3001001004B1E994110B5F6
:1003C000040082B00020C9B206F014FC6042604113
:1003D00002B010BD10B54024074A83009A18126875
:1003E000C0005440C0222240044C1B191A60044B28
:1003F000C018416010BDC04604C0014004D0014097
:1004000000400140064B8000C3181B68C9009200E1
:100410000A435A400C231340024A80180360704775
:1004200004C0014004D001408000002904D0054BE5
:10043000C018022303607047034BC01802230360F7
:10044000F9E7C04604E0014004F00140D02330B594
:1004500007241B0615001A6853009A18C308204089
:10046000800081401800084C3C30120180009B0045
:1004700001519B18002D03D0044A9B18196030BD10
:10048000034A9B181960FAE70040014000610140EF
:1004900000710140D02310B504001B061B680748FB
:1004A0009B0084461858044206D1204364461851E4
:1004B0000D2000F075F910BD01F034FB4C1F002039
:1004C00010B504000D2000F047FAD0231B061B686E
:1004D00002499B005A58A2435A5010BD4C1F00209D
:1004E0000123D0228340120693629361084A83005D
:1004F0009A1811684022514080320A400549C000D4
:100500005B181A60044BC018052343607047C0464F
:1005100004C0014004D00140004001400FB400B5C8
:10052000084883B003F0DEFD049B002B07D005A92B
:100530001800019103F024FC034803F0D3FD0120CF
:1005400003F036FC68B3001038B5001010B5014850
:10055000FFF7E4FF78B30010EFF3108072B6034AA0
:100560001368002BFCD0BFF35F8F70472C0100D0C5
:10057000BFF35F8F0022024B1A6080F31088704730
:100580002C0100D070B58C461600EFF3108472B6C3
:100590000F490B68002BFCD0BFF35F8F6346DB086D
:1005A000C5180722C05C63461A40012393401A0015
:1005B0000240034207D118432870BFF35F8F0A60DF
:1005C00084F3108870BD61463000FFF7A7FFC04676
:1005D0002C0100D0F8B5CE4647468C4680B51C00AD
:1005E000EFF3108872B61C490B68002BFCD0BFF3E8
:1005F0005F8FA24221D80723994602E0013294423C
:1006000018D34946012611408E40D308C718C35C51
:100610001E42F3D1100033433B70BFF35F8F0022C3
:100620000D4B1A6088F3108800280EDBC0BCB94659
:10063000B046F8BD01204042EFE7BFF35F8F0023D3
:100640000B6088F31088012040426346002BEDD0F8
:100650000898FFF763FFC0462C0100D010B5844610
:100660000A00EFF3108472B60B490B68002BFCD024
:10067000BFF35F8F0723D008134001229A406346DF
:100680001B5C934362461354BFF35F8F00230B60E0
:1006900084F3108810BDC0462C0100D0044A1078A5
:1006A000431CDBB2172B00D9102313707047C046D0
:1006B000980600200021044B044ABFF35F8F02C359
:1006C0009342FAD17047C046000100D0800100D0AB
:1006D000084B094A1360094A1360094A1360094A22
:1006E0001360094A1360094A1360094A1360094AF2
:1006F000136070478080808000E400E004E400E044
:1007000008E400E00CE400E010E400E014E400E0A1
:1007100018E400E01CE400E01F2318401E3B834067
:10072000002905D0C021044A490053501360704786
:10073000802201498B50FAE700E100E00123834069
:10074000014A13607047C04600E200E010B5EFF3C5
:10075000108C72B60F4A1368002BFCD0BFF35F8F6A
:100760000D4B10309B6880001B580C4A934201D0FF
:1007700099420CD1084B9B681950BFF35F8FBFF3B0
:100780005F8F0022034B1A608CF3108810BD01F0BC
:10079000C9F9C046240100D000ED00E0C1010010FD
:1007A000F0B5DE4657464E464546E0B58B4685B029
:1007B000EFF3108872B616005B4A1368002BFCD06A
:1007C000B246BFF35F8F002558494D57002D00DA20
:1007D000A8E06B00564A01935B199B00D418A779D7
:1007E00010300F7053498000896884460F58B91A39
:1007F0002F2933D8012039008143CE79564500D8BE
:100800006AE0A1465646039307E05800C0188000EE
:100810001018C479B4424DD901000623CB56002BE1
:10082000F3DA081D4C46B24681460293424B4E46CF
:10083000043CA41B2405414E640D34438C808D710F
:1008400001994919890052189380029B3C49937180
:100850005346D3715B461160936017E039498F426C
:1008600060D139490127D15238490233D3180439AC
:10087000CB1A324A1B055B0D13436380344BE67180
:10088000A380FF23A3715B462743A3606246294BE5
:100890009B689F50BFF35F8FBFF35F8F0022224B97
:1008A0001A6088F3108805B0F0BCBB46B246A94672
:1008B000A046F0BDB2460E1D4C46B1468888029354
:1008C000039B4005001504334844D318C31A1B0585
:1008D0001A485B0D0343AAE79E1CB14691444E465D
:1008E0000F001C4DBF1A7F417D432D0D164FA57182
:1008F000D752164F0433043FD318BF1BCB1A3F0502
:10090000043B7E0D1B050D4F5B0D3E431F435346BD
:10091000E3715B46A3600A4BA7806680044327000F
:100920000B60B3E701F0FEF8240100D06121022042
:100930009C06002000ED00E001BD000000E0FFFF8C
:1009400001488047C101001000A1FFFFCC06002034
:1009500001BDFFFFAAAA0000F0B5DE4657464E468D
:100960004546E0B583B0EFF3108972B65D4A13686F
:10097000002BFCD0BFF35F8F5B4B5C4E9A6803008B
:1009800010339C0012599846B2423BD08A424CD058
:10099000574FBC46D71B2F2F34D8564B1F271D68E7
:1009A0000740AA460125BD4080270195DD51BFF3D0
:1009B0005F8FEFF30585AB46002D38D101231D0075
:1009C0008540280055460540100098438768AA4690
:1009D000B94208D17CE073009B199B0063449F6877
:1009E000B9422DD0180006268657002EF3DAB942F8
:1009F0004CD05346002B1ED0C0213E4B01984900DD
:100A000058501860384B9B681A51BFF35F8FBFF383
:100A10005F8F0022334B1A6089F3108803B0F0BC5B
:100A2000BB46B246A946A046F0BD3200EAE7A8455B
:100A3000C4D001F077F880232E490198C850E1E72F
:100A40000627DF57002F22DB7900C81985002E000A
:100A50006644B0689860F079D87106203056987175
:100A6000002826DB6046B688C01A7605361576194A
:100A700080190005204E400D30439880CB191F4946
:100A80009B000878634498710F70B2E703005946E1
:100A9000002910D1FF3181711949818017486546BD
:100AA0000178997117495B1B5B415943090D01702E
:100AB0009FE71348E1E714491448C91A08394E0260
:100AC000760D30439880124849080143D98090E759
:100AD0000627C7570300002FB6DA59460029EAD186
:100AE0003200DBE7240100D000ED00E0C10100107E
:100AF0009C06002000E100E000E0FFFF61210220F1
:100B000001BDFFFFAAAA0000D606002000F0FFFFEB
:100B100000F8FFFF084A83089B009B181A6810B56D
:100B2000140003221040C000FC3282409443220093
:100B300081400A431A6010BD00E400E00123034332
:100B400070B59C46EFF30581EFF3108572B6214A2C
:100B50001368002BFCD0BFF35F8F1F4B04001F4AAC
:100B6000E41A64416243120D1D4C8900A66852B21A
:100B7000765866451CD00621595691421CD0122148
:100B80005956914222D01E215956914220D02A21F5
:100B900059560324914210D0124B19781A70817162
:100BA000BFF35F8F00220B4B1A6085F3108870BD76
:100BB000A3680D4C5C50EFE700246100091989001F
:100BC0005B18FF21997109499980E5E70124F4E751
:100BD0000224F2E7240100D09C060020AAAA00000B
:100BE00000ED00E061210220C101001001BDFFFF06
:100BF0001F2110B5091A0248FFF730FD10BDC0468D
:100C00006221022000B5074B83B00100009300224F
:100C100005230548FFF7DEFC002801DB1F23181A17
:100C200003B000BD88B300106221022070B504003B
:100C30000E001500FFF732FD0100200000F006F85D
:100C4000A680E580BFF35F8F70BDC046024BC91818
:100C5000890001607047C04640000034F8B5124C6E
:100C6000124DAC4212D20126002776422368002B97
:100C70000DD0FFF713FD01002000FFF7E7FF6660CE
:100C80002772BFF35F8F0C34AC42EFD3F8BDFFF790
:100C900005FD01002000FFF7D9FF6660BFF35F8FFD
:100CA0000834AC42E2D3F1E7900D0020A00D002003
:100CB00010B50400FFF7F2FC01002000FFF7C6FFAB
:100CC00001235B42636000232372BFF35F8F10BD7B
:100CD000F0B5DE4657464E464546E0B585B0EFF3E3
:100CE000058303221A40B34B91005F5801239340C0
:100CF0009B4602925A468846AF4B1A60AF4B03930D
:100D00005B46AF4843630823FE5E002E37DABB889C
:100D10001BB2002B00DBA4E0BB79002B00D0E5E088
:100D20000823F95E002920DB4B007A695B18DB00A1
:100D3000D3189D68DC686B1C00D104E1A048010059
:100D40004144826A0B69AE1A9B1A9E4215D3012355
:100D5000026A029883401A420FD0994800F05AFC68
:100D60008C4202DCCCD18542CAD940BF05B0F0BC70
:100D7000BB46B246A946A046F0BD0D61EDE77A69D3
:100D8000730091469B19DB0099444B469C68DD68D3
:100D900000F040FC8D42BADC00D1F6E0002D00DA14
:100DA000DBE04A464B4652691B699246039A9342DE
:100DB00000D1CCE04A460821785E528800045146B2
:100DC00010439847009001910099019A0B0013433A
:100DD00000D1C2E013000A00002B00DBD9E02000A4
:100DE0002900801A99414B469860D96000229B5E89
:100DF000002B00DA8BE75D007C69EA18D200A218AC
:100E000000949468D268A2468A4200DD7FE702D14E
:100E1000844200D97BE70824A4463B81BC44009C63
:100E200000972F006546B4463E0006E05E00F218CB
:100E3000D200A2189768D268BA468A4207DC00D16D
:100E4000B4E0F318DB00E518E35E002BEEDA66464B
:100E50004A46009F13802E80BB881BB2002B00DA0D
:100E60005AE73A69EFF3108172B61368002BFCD091
:100E7000BFF35F8F0123BE885B42BB8036B23B6904
:100E8000BFF35F8F00221A6081F31088002E00DA12
:100E900042E73B0008333A0099467D6973009B198D
:100EA0000824115FDB004846EB18002913DB9C681F
:100EB0000093A446DC6806E0A34240D00023F95E1C
:100EC0003800002906DB4F007F18FF00EF19FB6890
:100ED000A342F1DD009B068000201E5E1980002EDB
:100EE000DCDA1700BB79002B00D119E70023BB71B6
:100EF0000823F95E4B1C00D137E73D000835AC46AE
:100F00007C6903E084464B1C00D109E74B005B1869
:100F1000DB00E0180A00E15E43881BB2002BF1DA27
:100F200001256D42EE178560C66008257B5F934200
:100F3000E9D0634619803B8903803A81E3E7BB68C7
:100F40006345BBD9C6E7631C00D0F7E605E7534607
:100F500050461B699847002823D14B461B883A69A5
:100F60003B81EFF3108372B611680029FCD0BFF308
:100F70005F8F49467A880A803A697E80BFF35F8F27
:100F80000021116083F31088C1E6844200D805E790
:100F9000BDE60B4800F03EFB009B019CC018614180
:100FA00021E753460CCB009201930DE7824500D810
:100FB00047E74CE79C1C00203C700540D10C00101A
:100FC00000400540074810B50268EFF3108172B683
:100FD0001368002BFCD0BFF35F8F03F08FFD002060
:100FE000002110BD6020002070B52D4C2569002D1A
:100FF00004D00A212B48FFF729FE70BD2A4E032199
:10100000294800F0E5FAE660FFF748FB274B03228A
:10101000C018D02322701B061B6801216370244B6B
:101020008000A3600F23206102206380636949422E
:10103000A18019800231198647311D835852183119
:101040005A5275325C39995218320131995218321C
:1010500001319952183201319952083518329D5296
:101060000231183299521832013199521832013135
:10107000995218320131995218320131995218326D
:10108000013199520B4B0C49DC6001303562FFF79E
:101090005DFB01210320FFF73FFB084B1D60A8E724
:1010A000F006002060200020004005404000003491
:1010B000FFFF10009C1C0020D10C00103860054080
:1010C00000487047F0060020F8B5050018200F0012
:1010D00001F04AFA041E41D01821380001F062FAEA
:1010E0006061002837D00121280000F083FAE56014
:1010F0000600FFF7D3FA1A4B2670C018D0231B0640
:101100001B688000637001235B422381A380FB186E
:10111000206167816380002F0AD079006369C91953
:10112000C900104AC9181A80183301328B42FAD10B
:101130000127B7400C4BB20030000C492F62D4504D
:10114000FFF704FB01213000FFF7E6FA084BED182A
:101150002F602000F8BD200001F046FA0024F8E7D7
:1011600040000034FFFF00009C1C0020D10C001048
:1011700038200000124B70B5040098421ED00123A5
:101180000578C668AB400F4A3362B218136001217C
:101190002800FFF7C1FA28000B49FFF7DDFB290003
:1011A000300000F01FFA00212278084B606992009D
:1011B000D15001F019FA200001F016FA70BDC046B6
:1011C000F006002038300000D10C00109C1C0020DC
:1011D000F8B51F0008AB1B7804001600002B07D1E0
:1011E00000F020FA32003B00121A8B41002B51DB39
:1011F0002269EFF3108C72B61368002BFCD0BFF39A
:101200005F8F0223E15E256900293ADB4B006069AC
:101210005B18DB00C218C35A6380BFF35F8F0023E3
:101220002B608CF31088069B9660D7601361079B38
:101230005361538801335B045B0C181C002B1ED0D8
:1012400083B25080080418432569EFF3108672B604
:101250002B68002BFCD0BFF35F8FA3881380A18085
:101260002369BFF35F8F00221A6086F3108823780A
:1012700001329A400849E3685B181A60F8BD012002
:10128000DEE7BFF35F8F00232B608CF31088012013
:101290004042F3E70020F1E73C20000070B582B047
:1012A0000092019301000269EFF3108472B6136893
:1012B000002BFCD0BFF35F8F0223C85E0D690028AE
:1012C0003FDB4A69430016001B18DB00D218F35AB3
:1012D0004B80BFF35F8F00232B6084F31088069B45
:1012E0001361079B5361009B019C9360D4605388FA
:1012F00001335B045B0C1D1C002B20D0ACB203043B
:10130000558023430D69EFF3108C72B62C68002CC6
:10131000FCD0BFF35F8F8C88148088800A69BFF38C
:101320005F8F002010608CF310880A7801309040A5
:10133000CA68084952181060180002B070BD012533
:10134000DCE7BFF35F8F00232B6084F31088013B41
:10135000F2E7C0463C20000010B543890A149342CE
:101360001ADD53009B184269DB00D3180469EFF3C0
:10137000108C72B62268002AFCD0BFF35F8F5A88A7
:10138000090494B2090C8A4208D00369BFF35F8F45
:1013900000221A608CF31088002010BD094A2243F5
:1013A0005A80012302698371BFF35F8F00211160AE
:1013B0008CF31088027804499340C26801205218C7
:1013C0001360EAE70080FFFF3C2000004078704790
:1013D000F0B54746CE46060080B596246442E51730
:1013E0000F00A4197D4183B08D4215D812D000F0B2
:1013F00019F922002B00121A8B41002B16DC002B4E
:1014000040D03000390000F04DF903B0C0BCB946FF
:10141000B046F0BD8442EAD90024002500F002F96C
:1014200022002B00121A8B41002BE8DD00F0FAF8A5
:1014300022002B00121A8B41002B0ADB00230193A0
:10144000124B2200009312482B00FFF727FF0130B8
:10145000D7D0A846A1460F4D0F4C6B6A984504D8CB
:10146000AA6A4A45CDD29845CBD12268EFF31081C4
:1014700072B61368002BFCD0BFF35F8F200003F01F
:101480000BFBEAE7002ABCD0D0E7C046C50F00102E
:10149000F00600200040054060200020F0B5CE4658
:1014A000474680B504000D0085B0EFF305838946FB
:1014B000002B32D1404E336883422AD03F4FFB6825
:1014C0003A7898461800039200F0A4F8039A131D86
:1014D00042469B009B5822001B1A9C462B00121A66
:1014E0008B411900002310008B4225DC22D020BF45
:1014F000334B586A48452BD3401B9A6A431E984188
:101500000023A2425B41184305B0C0BCB946B046B7
:10151000F0BD73688B42D1D1E9E7294900204B6ABD
:10152000AB42F1D38A6A5B1B591E8B41A2424041F8
:101530001843E9E78445DAD900F074F822002B005B
:10154000121A8B41002B05DA1D4A536A4B4529D2EA
:101550000020D9E7002301931A4B220000933800A2
:101560002B00FFF79BFE0028EEDD154B30C65A6AB4
:101570004A4515D39B6AA34210D301003800FFF7F8
:10158000EBFE0F4A0020536A4B45BDD3926A5B1BAA
:10159000591E8B41A24240411843B5E74A45ECD160
:1015A00020BFEAE70020926A5B1BA24240415A1E1C
:1015B00093411843A8E7C046E8060020F006002043
:1015C00000400540C50F001000487047004005402E
:1015D00010B5024A0248FEF7D5FF10BDA4B30010B3
:1015E0006413002010B50248FFF738F810BDC0465C
:1015F0006413002000B5054B83B000930022032341
:101600000348FEF7E7FF03B000BDC046C8B30010B3
:10161000641300200300416A0A00986A596A8A42EA
:10162000FAD17047034B596A0A00986A596A914285
:10163000FAD170470040054070B505000E00184A09
:10164000536A1900946A536A8B42FAD12000190038
:101650002C00350024184D41AB4216D813D0104B46
:101660002A005B6A9D4203D90D494B6A9342FCD321
:10167000934207D10A4A02E0516A994202D1916A23
:10168000A142F9D370BDA042E9D9054B5B6A1C00A9
:101690005A1CEFD0012201246442E5175242E3E7CD
:1016A00000400540064A536A9942FCD807D1044BD2
:1016B00002E05A6A914202D19A6A9042F9D8704780
:1016C00000400540F8B5040006200D0000F06EF95A
:1016D000002843D0364B3749E3185A1E93418022E5
:1016E0005B429B0D12049B059B18334A1360334ADF
:1016F000136018000A689043FBD12D4B304AE31861
:1017000059424B4180215B0049000620995200F06C
:101710004DF92900C00000F05DFB0130C3091ED166
:10172000402701226262A362266BF30722D4E36A98
:10173000244B0620E51800232B60266300F036F9C1
:101740003900800000F046FB7023E26A5A400E33F5
:1017500013402B601C4B23630323A364F8BD1B4A77
:1017600093421DD900231A4A1A4F6262A362266B64
:10177000F307DCD5184B144AE3181A60656AA36AAC
:101780000620AD01ED1800F011F9144900F022FB1C
:101790000100A80200F01EFB0021FFF74DFFC6E785
:1017A00040069A01800E17181A000300BAE7C046D7
:1017B0000080FCBF08C0004000E0004000F0004096
:1017C000642000202C10000001030000FEFF000038
:1017D000FFFF0000C0FF3F00303000004E0E000051
:1017E000F8B5DE464E4645465746E0B505008B4601
:1017F00018000A99914600F0EDFA0A9B6C001E024F
:101800006419304BA400E418636880469E4200D9F6
:1018100066602F1FFBB29A46012B2FD9C02380226E
:10182000294FAD009B0179591201E3181A60002974
:101830001BD14B4622685B015340E02213408022BB
:101840005201A21813605346012B2FD98023802206
:101850009B01E31812011A60434666607B51F0BC9D
:10186000BB46B246A946A046F8BD786900F0B2FA78
:10187000013043001B18033BFDD2DAE75B46012B26
:10188000CCD1C02303229B01E3181A60023AA3685B
:101890001A42FCD04A46236852015A40E0231340C2
:1018A00080225201A218084F1360AD00584603234E
:1018B000216841400B40136001228240A3681A4214
:1018C000FCD0C3E7008000406C130020F0B5D64682
:1018D0004F464646440098462418324BA400E4186C
:1018E00063688A469146C0B5FF2B02D880235B000F
:1018F0006360061FF6B2012E2FD9C02380222A4F23
:1019000085009B0179591201E3181A6000291BD147
:101910004B4622685B015340E02213408022520173
:10192000A2181360012E30D9802380229B01E31876
:1019300012011A6080235B00636043467B51E0BC68
:10194000BA46B146A846F0BD786900F043FA0130C6
:1019500043001B18033BFDD2DAE75346012BCCD1E1
:10196000C02303229B01E3181A60023AA3681A42BB
:10197000FCD04A46236852015A40E023134080229B
:101980005201A218084F13608500504603232168B6
:1019900041400B40136001228240A3681A42FCD0F0
:1019A000C2E7C046008000406C130020014B80005D
:1019B000C05870476C130020F0B5C646040000B54F
:1019C0002348160098460D0000F004FA010030008C
:1019D00000F000FA4346069A1B04120313439C4688
:1019E00023680600002B22DB1A4B1B48E218531E0B
:1019F0009A4180235242120B9B011203D218174BBB
:101A00001A60174B1A60130001688B43FBD1212227
:101A1000144B2560E318A6601A602268002AFCDADD
:101A20006246E26008221A6080BCB846F0BD3F23DF
:101A300022681340AB42D7D1A3681B051B0D83421C
:101A4000D2D1EE22E368D20213406345CCD1EBE75A
:101A5000001BB7000040FDBF08C0004000E0004090
:101A600000F00040043000008023024A9B000B433A
:101A7000D362704700800540002310B50100988AAA
:101A80001B8B984710BDC046162310B5010018885F
:101A90005B88984710BDC046F8B54746CE4680B52E
:101AA0000F1E18D014239946043304000025012684
:101AB00098464B461888434621681B88984701C4BE
:101AC000431E984101350640AF42F2D13000C0BC00
:101AD000B946B046F8BD0126F8E7C046002370B508
:101AE00004000D00988A03491B8B984729000300C6
:101AF0002000984755420000AA23064A1B011360A4
:101B00008D235B00D3600449044B19605368002B9C
:101B1000FCDA70470040024000B0FA00006002406A
:101B20007047C04610B50148FEF7F8FCDCB3001062
:101B300070B5074D074EB54209D20024013E761B11
:101B4000B608013608CD01349847B442FAD170BDC9
:101B5000D8B2001018B30010054B064A06491A60A7
:101B6000064A074B1A6010000B689843FBD1704778
:101B700000E00040BFCDFBFE08C00040FE7F3C00FF
:101B800000F00040044BDB6C002B03D18022034BA0
:101B9000D2021A607047C046000011504C2011500C
:101BA000044A054B1A60054A1368DB018033FBD1F8
:101BB0007047C046FFFFFF0100F0004008C0004032
:101BC0004022034B9A675A671A67DA667047C04625
:101BD00000F0014010B5FEF76DFD10BD70B527494E
:101BE000274E284D761AB4082200302C00D9302216
:101BF0002800920000F016FD2F2C3BD823002A3B32
:101C0000214A052B1BD93020AE197107001B260075
:101C1000CB0F002902DAA1006A50661CC01AE31833
:101C20009B004108EB18C900C9181A605A600833B4
:101C30008B42FAD1012303421CD098438419A3009C
:101C4000EA50631C2F2C15D09B00EA50A31C2E2CAD
:101C500010D09B00EA50E31C2D2C0BD09B00EA50C7
:101C6000231D2C2C06D09B00EA50631D2B2C01D089
:101C70009B00EA50054B9D6070BDC04600010010FE
:101C8000C001001000000020C101001000ED00E0C4
:101C9000002310B5294C82B0A367FFF72DFF012266
:101CA000274B1A60636C012BFCD10322254B1A6071
:101CB000224A936B012BFCD1013300930121224A6C
:101CC00022480433FFF778FE052301210093204AC0
:101CD0002048FFF771FE0022022104201E4BFFF76F
:101CE000F5FD0022012105201C4BFFF7EFFD00222E
:101CF000002107201A4BFFF7E9FD002200210820F0
:101D0000174BFFF7E3FD8023DB0000930022002147
:101D10000920134BFFF764FD0022104B0021062021
:101D2000FFF7D4FD0420FFF741FE0E4900F052F802
:101D300001000020FFF798FE02B010BD00800040B7
:101D40003CB0004030B00040002F68590080024095
:101D5000008C864700C00240001BB7004059730743
:101D6000006CDC0240420F0001480421014B18477F
:101D700010070020991A0010014B9B6818470000BB
:101D800010070020124A936F9B0815D29066D16607
:101D9000002905D0FFE7FFE7FFE7516F106F70479D
:101DA00004B580210906C2175140002800D0C8435D
:101DB00009F04AFA002104BDF0B5146E556E576F54
:101DC000166FFFF7E3FF1466556657671667F0BD99
:101DD000000000D0114A936F9B0813D21066516621
:101DE000002905D0FFE7FFE7FFE7516F106F70474D
:101DF00004B5002801D00020C04309F025FA0021D5
:101E000004BDC046F0B5146E556E576F166FFFF7E0
:101E1000E5FF1466556657671667F0BD000000D0F1
:101E200094464A4A926F9208624601D228E0C04620
:101E3000F0B5464E346E756E776F366F00F020F851
:101E40009446424A14665566576716676246F0BD67
:101E500094463E4A926F9208624601D254E0C046D0
:101E6000F0B53A4E346E756E776F366F00F04CF801
:101E70009446364A14665566576716676246F0BD43
:101E8000002B24DB11D000293EDA00B5C9434042C3
:101E900000D1013100F038F8C943404200D101318E
:101EA000DB43524200D1013300BD002AEBD10028B0
:101EB00001D1002905D00020C90FC90701D1C043B5
:101EC000410800B509F0F0F90022002300BD00B57B
:101ED00000290ADBDB43524200D1013300F014F841
:101EE000C943404200D1013100BDC943404200D145
:101EF0000131DB43524200D1013300F005F8DB43EE
:101F0000524200D1013300BD002923D1002B18D14A
:101F1000002A0CD0BC460D4F38667A66002100239B
:101F2000FFE7FFE7FFE77A6F386F674670470028E3
:101F300001D00748010000B509F0B6F900220023DE
:101F400000BD02000B00002000217047000000D0FF
:101F5000FFFFFFFF002B00D0BFE0130C28D1002AA9
:101F6000E7D080B4114F39667A66FFE7FFE730B4F7
:101F7000040C7B6F396F1B0423433B667A66FFE7D3
:101F8000FFE7FFE7C04684B27B6F3D6F1B0423432E
:101F90003B667A66FFE7FFE7C04600232C042D0C62
:101FA0007A6F386F00196941B0BC7047000000D0EB
:101FB000F0B594460025140E01D112020835140F15
:101FC00001D112010435940F01D192000235D40FD2
:101FD00001D152000135D40B0134254F7C66254CCC
:101FE0003C660E0C93B2FFE7FFE7FFE73C6F6643EA
:101FF000360C7703BE467343DF0B5B04C01AB9414E
:10200000130C7343DB18C91ACE086643360CB6446A
:1020100093B273431F0F1B01C01AB941130C7343D2
:102020001F0B1B05C01AB941860D8F023E43664344
:10203000360C092D24DB520A7243801A7703460AB4
:102040006643360C16235B1BDE40DF40BF19644637
:102050006643821B7046043506330100D940A84010
:10206000C01900D30131A24206D20023F0BD000006
:10207000000000D0FFFFFFFF121B0130F3D3F1E798
:1020800009277F1BFE406446A2B27243801A00D229
:102090000139220C7243130C1204821A99410B006D
:1020A0007046043513370100F940A840801900D369
:1020B0000131002B02D1A2420AD2F0BD013000D37F
:1020C0000131121BFAD2013BF8D1A24200D2F0BD7D
:1020D000013000D30131121BF7E7F0B51C0C00D022
:1020E00080E00CB400251C0A04D11B02160E3343F9
:1020F000120208351C0B04D11B01160F33431201C9
:1021000004359C0B04D19B00960F3343920002359B
:10211000DC0B02D192185B4101351C009718644119
:102120000134464F7C66464C3C660E0CFFE7FFE7E9
:10213000FFE7C0463C6F6643360C7703BE4697B256
:102140007743C01B00D20139C01B00D201399FB2B6
:102150007743C91BC91B170C77437E04FF0B801BF9
:10216000B941CE086643360C0C2D33DBB644120B56
:102170001F053A431B0B97B27743C01B00D20139AE
:102180009FB27743C91B170C77433E043F0C801B5B
:10219000B941860D8F023E43664329277F1BFE40CF
:1021A0000C3D7746AF40BF1930BCA2B2ABB2724310
:1021B0007343801A9941220C7243130C1204801A43
:1021C000994102000B000137001BA941F9D2781E8A
:1021D0000021F0BD0C277F1BFE4077467F0BAF40F0
:1021E000FF19E0E700245D1C07D0144F7D663966B7
:1021F000FFE7FFE7FFE7FFE73C6F95B29EB265435D
:102200006643401BB141150C1E0C65436643360402
:102210002F0C3E432D04401BB141994204D20200D1
:102220000B0020000021F0BD01D19042F7D3801AAD
:10223000994101349942F2D3F6E70000000000D042
:10224000FFFFFFFF48404140484018B4134B5B6814
:10225000019308BD18B4114B1B68019308BD944647
:102260000F4A926F920805D2624618B40B4BDB6896
:10227000019308BD0A4AF0B5146E556E576F166F7C
:102280006246FFF7F2FF064A1466556657671667FF
:10229000F0BD18B4014B9B68019308BD700F00207E
:1022A000000000D0FFB550404240504059404B40E4
:1022B000594000E0FFB5154F4C00640D03D0BC42FF
:1022C00004D10C0314D80020090D09055C00640D2D
:1022D00003D0BC4204D11C030AD800221B0D1B05ED
:1022E00001264B4009D44B4003D58B4200D182429A
:1022F000FFBD9942FCD19042FFBD0B43DB18034365
:102300001343F5D0C9434918FFBD0000FF07000083
:1023100000B5FFF7CFFF804100BDC04600B5FFF715
:10232000C9FF01D9002000BD012000BD00B5FFF7A5
:10233000B9FF01D9002000BD012000BD00B5FFF7A5
:10234000B1FF804100BD012040054A00121804D8A9
:102350005A00121801D80020704701207047000071
:102360000021002805D17047C1174840401AFAD013
:10237000C90713B5064B1B6898470CBC441CA24008
:102380001005120B0349091B09051943114310BD20
:102390005C1F00201F04000010B54C00620D80235C
:1023A000D218DB00D21A5B057E2A10DD9E3A13DAC2
:1023B000CC170903490819435242D1406400013443
:1023C0001532202A05DAD0400843604310BD0020B2
:1023D00010BD0846604310BDC80FC018013810BDBD
:1023E00018B4024B5B6A019308BD0000700F002017
:1023F00010B50148FEF792F8E8B30010132370B54A
:102400001D78012D19D014DD1D48FFF73DFB060096
:102410001C48FFF739FB1C4C80223100200000F0E3
:1024200001F9022D06D01948FFF726FB184B18605A
:1024300070BD154C174BA364F5E7174B124C236086
:102440006360A360E36023616361A361E36123626E
:102450006362A362E36223636363A363E36323644E
:102460006364A364E36423656365A365E36523662E
:102470006366A366E36623676367A367E367D9E7D9
:102480005344000053460000700F00204C330000FE
:102490005C1F00209D240010F123001007B560464A
:1024A00001880A0A0230DF2AFAD1C9B2820804D3AD
:1024B000028840880004104300E00068014A505040
:1024C000039007BD700F002051434343C9188C4649
:1024D000110C83B24B4310B4040C614392B280B22E
:1024E000504362431C041B0C001910BC59411304D7
:1024F000120CC018514161447047000010B50148EA
:10250000FEF70CF838B50010132310B51C781148ED
:10251000FFF7BAFA012C0BD004DD010080220E482F
:1025200000F080F80D48FFF7A7FA0D4B186010BDBA
:10253000094C01005422200000F074F82200200011
:10254000084980320368002B00D1016004309042BA
:10255000F8D1E7E753460000601F00204C3300002D
:102560005C1F0020FD24001070B504000A4E3000EE
:1025700008F062FE200008F09DF90500300008F028
:1025800043FE002D05D0054B2C199C4201D8280094
:1025900070BD0348FDF7C2FF900D0020000004202D
:1025A00000B40010F8B507000C000C4E300008F025
:1025B00043FE2100380008F017F90500300008F04C
:1025C00023FE002D06D07C43054B2C199C4201D8DC
:1025D0002800F8BD0348FDF7A1FFC046900D00207C
:1025E0000000042000B4001070B50500054C200068
:1025F00008F022FE280008F067F9200008F004FE29
:1026000070BDC046900D002001480421014B1847C1
:1026100020070020991A0010014B1B681847000082
:1026200020070020014B5B681847000020070020AE
:102630007047C046F8B5DE4657464E464546E0B5BB
:1026400099460D9B0700884693469B0728D00B9B15
:10265000002B3CD016000B9C0A9D3619321B013C06
:102660004B464146285DB847002CF7D135000D9BFD
:102670009B070ED55B46EC1A0C9BA34209D91E00A2
:102680002A004B46414620200134B8470135B44268
:10269000F6D32800F0BCBB46B246A946A046F8BD1A
:1026A0000B9B0C9A934214D213005D460C000B9ABC
:1026B0009E1A76192A004B46013521002020B84782
:1026C000B542F7D10B9BA046002BC4D1E1E7150022
:1026D000CDE75E46002BBED15D46DAE7F0B54F464A
:1026E000D6464646C0B584B09C460EAB1F78129BBA
:1026F0009146BA460D9C109E119D9B074CD4002D0F
:1027000041D1B44248D20123129F1F40B8460C9BCE
:102710005F1E302303E001343B55A64201D9202C33
:10272000F9D14346002B00D187E00C9B5F1E30237C
:10273000A54204D830E001343B55AC422CD0202CCB
:10274000F9D1129BDB060DD5129B5B0557D4A6422F
:1027500067D0A54265D00F9B102B53D0022B5BD0C6
:10276000202C36D12023129C01930C9B4A460093C7
:10277000039463460295FFF75DFF04B0E0BCBA46E0
:10278000B146A846F0BD0123129A13409846012392
:1027900013422DD1B442BAD3129BDB061ED5129B35
:1027A0005B05D8D4002CD2D10F9B102B60D00F9B8F
:1027B000022B71D0302301240C9A13705346002B46
:1027C00011D1129B5B0740D52B260C9A631C165522
:1027D000C9E72300013430260C9AD654202CC1D0EE
:1027E0005346002BEDD02D260C9A631C1655BAE7E4
:1027F000002F34D0013DB44200D288E795E70F9B0B
:10280000102BAFD1129B9B063CD5202CAAD058236D
:102810000C9A13550134A3E7202CA3D023000134D4
:1028200007E0631E012CBFD00F9A102A36D0022A6F
:10283000D1D162260C9AD65492E7129BDB06CDD5F5
:10284000129B5B0500D482E785E7129A23001607E6
:1028500000D488E720260C9A0133165583E70C2311
:1028600013405F1EBB41ED1AB44200D24FE75CE754
:10287000129B9B060ED478230C9A022413703023EB
:1028800053709BE7202C00D16CE778230C9A1355EA
:10289000013465E75823EFE76033EDE70C9AA61E95
:1028A000B618129A920602D55822327093E778220F
:1028B000327090E710B5002800D110BD01F0C8FBC0
:1028C000FBE7C04610B5002803D04A680B6811002A
:1028D000984710BDF0B54E46DE4657464546E0B532
:1028E00095B083468946924698461E9A1F9B1000D3
:1028F0001900209EFFF727FD002800D0D2E11E9886
:102900001F990122C44B5242FFF702FD002800D05C
:1029100001E11E981F990122C04B5242FFF70EFDA4
:10292000002800D0D6E01E981F990022BC4BFFF76C
:1029300005FD002800D0B5E01E981F990022B94B74
:10294000FFF7E6FC002800D0ACE01E981F9900229B
:102950000023FFF7DDFC002800D0D1E000230B931B
:10296000229B5B0500D406260024302306E006AA3D
:10297000013417321355013E202C01D0092EF6D810
:102980001E981F99FFF708FDA74BF2009B180CCB70
:10299000050008920993FFF7E7FC02000B001E9860
:1029A0001F99FFF752FC089A099BFFF772FC0690EB
:1029B0000791FFF715FD0700FFF7D2FC02000B009F
:1029C00006980799FFF741FC0022984B0690079163
:1029D000FFF7B4FC002800D1E9E001373800FFF729
:1029E000BFFC02000B0008980999FFF797FC00282C
:1029F00001D000270135002E00D1B7E0069513E085
:102A0000172306AA9B180A21380001341D19FFF765
:102A1000E1F93031297038000A21013EFFF7DAF977
:102A2000092F00D8E1E00700202CE9D1069D2024E1
:102A30000CAB0693172706ABFF180DE028000A2100
:102A4000FFF7A0F901343031280039550A21FFF78A
:102A500099F9051E00D1B7E0202CEFD10323229A6B
:102A60001340012B17D1219B002B14D00B9B002B63
:102A700000D1E3E0219B013B2193202B0BD9302394
:102A8000219A06E006A9013417310B55944200D370
:102A9000A0E0202CF6D1229B01940393219B02936A
:102AA000069B21E0229B52460493219B49460393B7
:102AB00058461E9B1F9C029600930194434600F0CB
:102AC00043F90400200015B0F0BCBB46B246A9464D
:102AD000A046F0BD229B5B070FD40322544B2299E2
:102AE000019203912199029100935246434649462F
:102AF0005846FFF79FFD0400E4E704224D4BEEE744
:102B00001E9A1F9B00200021FFF79FFB01231E90B0
:102B10001F910B9324E70223229A54461A40229BCA
:102B200006929B0700D1ACE02600434D08942F1F6E
:102B30003200E87843464946013DD8470136BD4258
:102B4000F6D1089C069B0434002BBBD05746219A33
:102B5000E31B9A42B6D9150022004346494620207D
:102B60000134D847E31BAB42F6D3ABE72800FFF7AD
:102B7000FBFB02000B001E981F99FFF766FB2B4B17
:102B8000002206000F00FFF7C3FB0CAB06930028E2
:102B900000D04FE7002230003900244BFFF7CEFB76
:102BA000002800D046E7012301359D4342E700227B
:102BB000069807991D4BFFF7ABFB002800D01AE7DA
:102BC000002F59D1013716E70323229A1340012B16
:102BD00000D1A6E0202C00D15DE70B9B002B3AD062
:102BE0002D23069A1355013455E7069D202C00D15C
:102BF0001DE73023361906E006AA013417321355B3
:102C0000202C00D113E7A642F6D12E230CAA0134C2
:102C1000069293550EE7C046FFFFEFFFFFFFEF7FE1
:102C200065CDCD4165CDCDC170BA00100000E03F4B
:102C300058B4001050B4001060B400100C23229A55
:102C4000134257D0219B013B2193A34200D916E7A1
:102C5000202C00D11FE7229B5B0704D52B23069A6B
:102C60001355013417E7229B1B0700D413E72023D9
:102C7000069A135501340EE7FB0700D4BBE6013773
:102C8000B9E6219B042B00D84EE755464F46043C3D
:102C9000E4182A004346013539002020D847AC42C9
:102CA000F7D141E70227229B55461F409B0726D0BC
:102CB00006975F46234EEC1C2A00B07843464946EF
:102CC0000135B847013EAC42F6D1069F002F00D136
:102CD000F8E65746219AE31B9A4200D8F2E615001F
:102CE00022004346494620200134D847E31BAB422B
:102CF000F6D3E7E6219BA34200D9C0E6CBE6219BB1
:102D0000032BD5D9069754464F46033DED182200B4
:102D10004346013439002020D847A542F7D1069F09
:102D2000C6E7219B002B00D154E70B9B002B85D0DD
:102D3000219B013B21939C4200D2A0E6202C00D095
:102D40004EE7A8E65CB40010F0B54546DE465746AF
:102D50004E46E0B59BB0249C259D8246884693460E
:102D6000994622002B0020002900FFF7ECFA0028EA
:102D700000D0C1E00122200029007C4B5242FFF725
:102D8000DDFA002800D0B7E0012220002900784BAE
:102D90005242FFF7BDFA002800D0ADE00022002328
:102DA00020002900FFF7B4FA002800D0BBE1089406
:102DB0000995089809998023289ADB001A400F92F8
:102DC0008022289E1201164032000E96289E0F0087
:102DD0000A901E4200D0A4E00B00034300D0CBE0D9
:102DE000002A00D012E23200063326930223134059
:102DF0000C930223134200D00AE2279B042B00D23B
:102E000015E200270426043B0E9300220023200035
:102E10002900FFF77DFA002800D0C8E1554B289A19
:102E2000134004930E9B0393269B0293089B099CDB
:102E30000093019441464B465A465046FFF74AFDDF
:102E400002002020289B0025034059424B415B4251
:102E50001840531C089341464B464530D047FB175A
:102E6000FC185C40FB0F1F270A93731E0E930AABDE
:102E7000FF1806E020000A21FEF7ACFF0400202D19
:102E800008D00A212000FEF7A5FF01353031795521
:102E9000092CEFD8052306930E9B56460593002375
:102EA00004930A3303930A9B4146029312AB0093A7
:102EB00030004B46089A0195FFF710FC0C9B002B45
:102EC00028D05F46279BC41BA34223D982461D00FE
:102ED0003A194B46414620200134B047A542F7D865
:102EE00050465946279C421A01320023944200D38F
:102EF00095E1013018180DE0289B0094019504938A
:102F0000279B0393269B02934B465A4641465046C5
:102F1000FFF7E0FC1BB0F0BCBB46B246A946A0469A
:102F2000F0BD01432AD10E9B3200002B00D15DE79A
:102F30000027269B0026BB4200DD82E10022002301
:102F400020002900FFF7E4F9002800D04BE1289B7E
:102F5000084A02961A408023DB0013430493279B00
:102F60000393089B099C00930194CDE7FFFFEF7F3B
:102F7000FFFFEFFFFFF7FFFF06232693B24B78001A
:102F8000400DC018FFF7F0F9B04AB14BFFF781F9D7
:102F9000B04AB14BFFF75EF93F03B04B3F0B3B43E9
:102FA0000C900D9100220A981900AD4BFFF74DF9D6
:102FB000AC4AAD4BFFF76DF902000B000C980D9970
:102FC000FFF748F9FFF7E8F90700FFF7CDF9A74A3F
:102FD000A74B0A900B91FFF75CF90022A54BFFF776
:102FE00039F9FFF7D9F9A44A06000A980B99A34BBF
:102FF000FFF74FF90A900B913000FFF7B5F9A04A9F
:10300000A04BFFF746F902000B000A980B99FFF757
:103010001CF902000B000A900B91FFF73AF90C9093
:103020000D910A980B9902000B00FFF713F900228B
:10303000109011910C980D99934BFFF710F9002205
:10304000924BFFF707F902000B000C980D99FFF760
:1030500006F900228E4BFFF7FDF802000B000C98DA
:103060000D99FFF7FCF80A9A0B9B0C900D918021AB
:103070000020C905FFF7E9F802000B000C980D9934
:10308000FFF7E8F802000B0010981199FFF7E7F836
:103090000022724BFFF7DEF87E4B0022F618330554
:1030A000FFF7F7F802000B000A900B9108980999B6
:1030B000FFF72EF9002808D00A980B990022734BCD
:1030C000FFF7CDF80A900B91013F0A990B9A0B007C
:1030D00011003A006332C62A12D802222898042628
:1030E00010400E9A0C90002A26D1279B042B05D95C
:1030F000002800D0A1E0279B043B0E93042642E069
:103100000222289810400E9A0C90002A13D1279B77
:10311000052B00D889E0002800D084E0279B0526F5
:10312000053B0E9332E080231B069C46AC4463466D
:10313000089409933DE605260B4300D1F9E608986B
:103140000999554A554BFFF7F1F8002808D008981F
:1031500009990022524BFFF7DBF8002800D0E8E67F
:10316000269B002B34D00F9B002B31D0269B013B9C
:103170002693279BB34204D90C9B002B59D00223E2
:103180000C9300230E93002F00D13EE60A9A0B9B6E
:1031900008980999FFF763F8002208900991002325
:1031A00020002900FFF7B4F8002800D136E6089C7B
:1031B000099D289A80203B4B00061340220004936F
:1031C0000E9B0393269B02932B180092019331E6EA
:1031D000279BB342D5D90C9B002B2AD000230E93FA
:1031E00002330C93CFE7289B2E4A8020089C099D30
:1031F0001A408023DB00134322000493279B000620
:1032000003932B180092019302967DE6052695E61E
:1032100000230E930233002704260C93F5E54B1E82
:103220001B191B1A65E602230C930526AEE704233F
:10323000E7E5279B9B1B0E93A5E7022304260C932F
:10324000A1E7DB1B5E1E79E601FCFFFFFB799F50C7
:103250001344D33FB3C8608B288AC63F0000F03FB9
:103260000000F83F61436F63A787D23F71A37909DC
:103270004F930A400000E03F1655B5BBB16B0240CA
:10328000EF39FAFE422EE63F00002C4000002440B9
:1032900000001840FF0300002D431CEBE2361A3FEC
:1032A00080842E41FFF7FFFFF0B55746DE464E46BD
:1032B0004546E0B5A3B01F002C9B92460C93C94A2B
:1032C000C94B8B460B901A60002900D1BFE1002347
:1032D00038789946002800D1C1E1C44B4C46099387
:1032E000C34B0E935B460A9308E0220053460A99AB
:1032F0000B9DA84701343878002876D0013725285F
:10330000F3D110239B46083B9946043B9846033B68
:10331000002602259C463878791C0300203BDBB24E
:10332000102B03D8099A9B00D3589F460300303BCB
:10333000092B36D900252A2800D1A7E000230D93B8
:103340002E283FD00300683BDBB2122B1BD80E9A0D
:103350009B00D3589F4663460F001E43DBE70F00D8
:103360002E43D8E743460F001E43D4E75B460F00C9
:103370001E43D0E74B460F001E43CCE780237878EE
:103380005B001E4301310F00672845D82428ACD9C3
:103390000300253BDBB2422BA7D896499B00CB58B4
:1033A0009F460025AB005D196D002D1808780F00B1
:1033B0000300303B303D0131092BF3D900230D933D
:1033C0002E28BFD13022802052429046C0000643B2
:1033D00078780B0080444246092A00D851E12A2817
:1033E00000D15EE10F000131ACE70A9BA1469B468C
:1033F000CA4503D801235B425344994653464A4683
:10340000594600200B9DA847200023B0F0BCBB46C6
:10341000B246A946A046F0BD0300693BDBB20F2BC4
:1034200000D962E7012199408846734A11408B46D2
:10343000110042460A4200D013E10A2B2FD0072B7D
:1034400000D052E70C9D01CD002800D134E12123AA
:103450001E43B0461F260D9A12ABF618A14694469D
:103460005946340002E0000920290AD00F26064000
:1034700032003732092E00D8073A013162540F2842
:10348000F1D863464C468B460D9322E10C9B20CB32
:10349000002D52DB78780C930F0001314EE70C9B26
:1034A0000D9904CB90469B46002900D128E1434664
:1034B00018784144002801D100F029FC0D9A944667
:1034C0000A0004E059780133002900D195E19A42BD
:1034D000F8D163460D934346D31A0F93730500D476
:1034E0006CE10F9B0D9A934200D90F9202231A00B0
:1034F00032400C92334200D191E20C930D9BB946BD
:103500001E1943461B1BA84622001F000B9D08E006
:10351000541C53460A99A847385D002800D163E13E
:1035200022009642F4D145464F4634000C9B002BB6
:1035300000D097E15B460C93DDE6022278781643D3
:103540000F006D420C930131F8E678786C2800D1B9
:1035500059E180235B001E43013114E780239B0067
:1035600078781E4301310EE77878682800D150E161
:10357000802301311E4306E7672800D1C2E04728B7
:1035800000D134E1452800D134E107210C9B0D9A8C
:1035900007338B4319000496039502920CC90B98CC
:1035A000009201930C91220053460A99FFF7CCFB3D
:1035B0000400A0E6462800D1A8E007210C9B0D9A44
:1035C00007338B4319000496039502920CC90B989C
:1035D000009201930C91220053460A99FFF77AF961
:1035E000040088E6A93200108C1C0020D0B800101E
:1035F00014B9001060B90010419000002200534639
:1036000025200A990B9DA847013474E60C9B0433CE
:103610009B46631C9846B60700D4FFE00C9B220033
:1036200018780A9953460B9EB0476419012D00D8AB
:1036300049E245460B9EB8460A9F2A00534601358B
:1036400039002020B047A542F7D1474672E7DB4B4F
:1036500038780B9300239946002800D03DE60024DB
:10366000C6E66F2855D000D8BCE21023782800D1D8
:103670009EE09E430A239C4600230F930A339B46F9
:103680004DE000218A0052185200013311181878B9
:1036900030390200303A092AF4D90D911F00591C23
:1036A00050E60C9BB87804CB0237D143C9170A40C7
:1036B0000D920C93791C45E610233000984311338A
:1036C0001843802380463000DB0018401E4200D1A2
:1036D000C0E643460693082305930D9B22000493FE
:1036E00010230393002302935B4601931AAB0093CC
:1036F0000A9953460B98FEF7F1FF0C950400FAE582
:103700000139D4E680231B011E433EE720231E43DC
:1037100053E708239C4600230F9308339B468023DE
:103720003000DB0018401E4200D11AE10D233100A9
:10373000994380230A009B001A409146194200D009
:10374000C3E180230A005B001A4090460C9A0432C1
:103750000F92194200D08FE24B0600D597E10B067D
:1037600000D4E5E20C9B1B8899464B46002B00D009
:1037700005E210339943002800D100E20023984667
:103780000D9B069104935B460393002305950293DA
:103790004346D9E0582808D0622878D102239C46B5
:1037A00000230F9302339B46B9E720231E43103BAF
:1037B0009C4600230F9310339B46B0E702231A0068
:1037C00032400C92334200D105E20C934346B94695
:1037D0000B9E0A9FA8461D1B220053463900013448
:1037E000B047285D0028F7D145464F469EE6802326
:1037F0001B011E4320231E43C7E662460D9242462C
:103800009B1A0F936AE6C0239B00B8781E43F91CED
:10381000B9E5C023B8781E43F91CB4E5012D00D8E2
:103820004AE1631E9946A9444B4652462600A146EA
:10383000BA461C001700A8460B9D32003B0001361B
:1038400020200A99A847A642F7D13B0057469A463E
:103850004C460C9B320018780A9953460B9D444401
:10386000A84767E6A0460F9B9D4200D862E62C1948
:103870000B9E4546B8460A9FE41A2A005346013576
:1038800039002020B047A542F7D1474652E68023B1
:103890003200DB001A4090461E4200D1F3E01121B5
:1038A0008E43B4469846802362469B001A40934656
:1038B00062461A4259D180235B001A4091460C9A05
:1038C00004320F9262461A4200D0A0E163465B06C2
:1038D00000D5D4E063461B0600D412E20C9B002204
:1038E0009B5ED8171918414089B2DA0F0C92002B51
:1038F00000D187E188461F2612ABBB461495F71806
:1039000045464E46E046A14606E028000A21FEF75D
:1039100061FA0500202E08D00A212800FEF75AFA85
:1039200001363031B955092DEFD84C46C446B14661
:103930005F46149D634606930D9B059504930A23E9
:1039400003930C9B02934B4601931AAB2200009306
:103950000A9953460B98FEF7C1FE0F9B04000C9387
:10396000C9E40C2331009943E3E60822072191467C
:103970000C9B07338B4399444A460ACB08000C92B0
:10398000DA0F9346184300D085E00023994643465A
:10399000002B2FD1002200231092119300231F2609
:1039A000994612ABF6185B461495BB46E0463700C5
:1039B0000F934E46A146109C119D05E03126001044
:1039C00004000D00202E0CD00A2200232000290024
:1039D000FEF73EFA01363032BA55002DF0D1092CEF
:1039E000EED80F9B109411955F464C46C446B146E5
:1039F0009B46149D634606930D9B059504930A23ED
:103A000003935B4602934B4601931AAB220000934B
:103A10000A9953460B98FEF761FE04006BE40F9B76
:103A20009D4200D896E18023DB000C930F9B2E195A
:103A3000F61A43460F930D9BA84699465346BA463D
:103A40001F000B9D22003B00013420200A99A8474B
:103A5000B442F7D10F9B454698464B460D933B0029
:103A600057469A4643461878002800D162E56B1CF9
:103A70000F930C9B002B00D1A8E600233DE50C9B87
:103A80001B78190031E710239E43B4460BE70C9BCB
:103A90001B78994669E6DA17129213924A401092FF
:103AA000129813990A005A401192109A119B121AF7
:103AB0008B411092119371E70C9B220018780A99A0
:103AC00053460B9CA047444634E5082207269046FF
:103AD0000C9B0733B343984442460C921A685B68C8
:103AE000149208931300089A134305D11033994395
:103AF00000239846002838D161208B0600D541204C
:103B000000231F2698465A4612ABF6180300189257
:103B10000F9A0A3BB1461695179419974446664684
:103B200090469B46149F089D159103E007000D00E9
:103B3000202C13D03200002338002900FEF788F92A
:103B40005B46D2B2D318092A01D8130030334A4653
:103B500001341355A845E9D1BE42E7D9189BA046C8
:103B60009B461599169D179C199F0D9B06910493D2
:103B70005B460393002305950293434644E7612087
:103B80008B0600D541201F2612ABF21803000A3B1A
:103B90000C934B464646A146A8461C005D46149130
:103BA000BB46170002E00400202E0DD029002000A3
:103BB000FEF710F90C9BCB18092901D80B00303304
:103BC0000136BB55AC42EED25F464C46AB4614992B
:103BD0004546B046D4E50F9B9D4200D926E7013308
:103BE0000F93F3E5102332009A439446692800D0DE
:103BF000A2E080233200DB001A4090461E4200D132
:103C000051E64CE64346002B00D093E673E60C9B4E
:103C10001B68DA0F002B70D0D9175B184B40984601
:103C20001F2612ABF618A14614955C464546BB46C6
:103C3000E04637000C9206E028000A21FEF7CAF899
:103C40000500202C08D00A212800FEF7C3F8013413
:103C500030313955092DEFD85F46C446A3464C464E
:103C6000149D0C9A634606930D9B059504930A23B5
:103C7000029203935B4667E60C9B1B689846002BF9
:103C800003D11033994300282DD161208B0600D534
:103C900041201F2612ABF61803000A3B4A460C933C
:103CA000149143463100A846A1465E461400BB4627
:103CB0001D000F0002E00500202C0DD0310028006F
:103CC000FEF788F80C9BCB18092901D80B0030337C
:103CD00001343B55B542EED223005F464C46454683
:103CE000B346994614990D9B069104935B46039342
:103CF0000023059502934B4626E64346002BB1D19F
:103D00008EE70C9B1B68D81719184140EDE58023FE
:103D10003200DB001A400F921E420FD00230020028
:103D200032400F92304219D00023A0460F939AE5FB
:103D30000C9B1B68994618E516009BE402231A00A9
:103D400032400C92334200D08CE5002D00D06DE65D
:103D5000FFF7F0FB01330F93FFF7D0FB0C93F4E771
:103D600000B585B003910121029000930348130030
:103D70004A4202A9FFF798FA05B000BDC528001015
:103D800010B5094A0300146884B0002C08D0012241
:103D900000910648524203A9A047012004B010BD7B
:103DA00000F0A0F90020F9E78C1C0020B5280010D5
:103DB0000021002010B5FDF791FEC0467047C046B7
:103DC000094A1368002B06D008491818884208D8F9
:103DD000106018007047064B044918181360884299
:103DE000F6D901235B42F4E7881C00200000042080
:103DF0006421022010B5FFF7DBFFC04670B5FDF768
:103E000097FE074D074EB54209D20024013E761BAE
:103E1000B608013608CD01349847B442FAD170BDD6
:103E200018B3001020B30010030010B508001100F3
:103E30001B68984710BDC046F8B5437D07000D00CC
:103E40001600002B38D0002A1ADD0B780A2B18D068
:103E50000020012E09D0012421006B5C01340A2BC3
:103E60001AD0B442F8D1864203DD311A3B682818D3
:103E70009847AD19013D2B780D3B5A4253413B7594
:103E8000F8BD037D002BE3D102210E483B68984723
:103E9000012EEED00120DEE76B1E5B5C0D2BE0D027
:103EA000884203DA091A3B68281898470548022116
:103EB0003B6898472000D4E7036811002800984722
:103EC000DEE7C046C0BA0010F8B50B680D005A1CFA
:103ED000CB180A601871802A00D0F8BD0E4B1C6800
:103EE000002C15D00D4E0F1D02E02469002C0FD0C0
:103EF0002368002BF9D03368002B01D0A342F4D102
:103F0000200039002A68FFF797FF2469002CEFD1C1
:103F100000232B60E1E7C0467C1C0020841C0020AD
:103F2000F0B54646D6464F46C0B582B090461C0016
:103F300006000D00FDF776FB00232F4A12184B41B7
:103F4000002B02DA01222D4B52422D4908008A46ED
:103F500007F0A2F981466B1C03D1300006F0E0FFA8
:103F60000500002C27D0274F274B1C68002C18D0A9
:103F70004346002B21D1254B984602E02469002CB2
:103F80000FD02368002BF9D043461B68002B01D0CB
:103F90009C42F3D120002A003100B8472469002C4C
:103FA000EFD14B46002B23D1280002B0E0BCBA462B
:103FB000B146A846F0BD164FD6E7144B984602E02E
:103FC0002469002CEDD02368002BF9D043461B68F0
:103FD000002B01D0A342F3D12A0031002000B847C2
:103FE0006B460A222000DA71D91D093AB847E7E783
:103FF000504607F009F9D7E740420F00FFFFFF7F67
:10400000980D0020393E00107C1C0020841C0020EC
:10401000293E00100A4A1368002B05D10CE01A0053
:104020001B691032002B07D08342F8D1002902D13E
:1040300018691060196170470029FCD01060FAE718
:104040007C1C002010B500F0A7F9012010BDC0466F
:10405000F0B5CE46474680B583B06B460600DD1D01
:104060002870FDF7DFFA0023194A12184B41002B84
:1040700002DA0122174B524217490800894607F01D
:104080000BF9164B80461C68002C14D0144F02E02C
:104090002469002C0FD02368002BF9D03B68002B3B
:1040A00001D09C42F4D1200001222900FFF7C4FE78
:1040B0002469002CEFD14346002B05D1300003B01A
:1040C000C0BCB946B046F0BD484607F09DF8F5E7DC
:1040D00040420F00FFFFFF7F980D00207C1C002056
:1040E000841C002070B5040006F01AFF01230100B3
:1040F000050001222000FFF713FF084B1C68002C6D
:1041000006D06368002B05D098472469002CF8D1AD
:10411000280070BD2469002CF3D1F9E77C1C002035
:10412000F0B5CE46474680B5A3B004000E00FDF7BB
:1041300079FA0023264A12184B41002B02DA012299
:10414000244B5242244807F0A7F800232200019391
:1041500080463300214801A9FFF702FE204F019B52
:1041600081463C68002B19D0002C2FD01D4E02E058
:104170002469002C0FD02368002BF9D03368002B62
:1041800001D0A342F4D12000019A02A9FFF754FE06
:104190002469002CEFD100233C680193002C06D049
:1041A0006368002B0CD098472469002CF8D1434653
:1041B000002B07D1484623B0C0BCB946B046F0BD7D
:1041C0002469EBE7044807F01FF8F3E70194EEE7F2
:1041D00040420F00FFFFFF7F980D0020C93E0010F6
:1041E0007C1C0020841C00200FB400B583B004A9FF
:1041F00001C90191FFF794FF03B008BC04B0184750
:10420000F0B5002915DD0E4B0D271A680D4B0E4C2D
:10421000D3185D426B41451820215B001E5F047876
:10422000A64207D093691942FCD101301460A8421C
:10423000F5D1F0BD93691942FCD11760F2E7C04691
:10424000682000200080FCBF642000201F4B30B598
:104250001B680D1E9C462ADD441E102100201C4BAD
:104260001A689369194214D1013093691942FCD13B
:10427000136823548542F4D16346002B07D05023A2
:104280009363516B183B0B4012495218136028007E
:1042900030BD6346002B07D050239363516B183B0E
:1042A0000B400C49521813600028F1D10BE0002B91
:1042B00009D05022064B1B689A63596B183A0A4082
:1042C00004495B181A6003204042E1E75C130020B8
:1042D0006820002034100000064B10B51B68002B2E
:1042E00006D00021044A12689163044A1068984776
:1042F00010BDC0465C130020682000206013002021
:104300000822034B19688B691A42FCD17047C046DA
:104310006820002070B51A4E1A4B32680400D3187A
:1043200058424341184D143318002B68002C02D01A
:10433000002B0FD070BD002BFCD006000021946331
:10434000FCF7EAF930001149FCF706FB104B2C6032
:104350001C60EFE72C6004000D4B19600B49FCF763
:10436000F5F901212000FCF7D7F9502233689A6350
:10437000596B183A0A4007495B181A60DAE7C046D9
:10438000682000200080FCBF5C130020D942001090
:1043900060130020341000000D4B10B51B780D4B3E
:1043A0000D4C1B780D4B02211B780D4B0020236018
:1043B000FCF710F802210120FCF70CF8E12120683D
:1043C0004902FDF77FF901210648FFF723FE10BDE2
:1043D000E0300410DC30041068200020D8300410D5
:1043E00000400340300700200022014B5A60704714
:1043F000201200208368002B04D107E01A68002AED
:1044000006D013008B42F9D1002005E003000833E9
:104410001960002301200B607047C0468368002BA1
:104420000BD0083003E018001B68002B05D08B422E
:10443000F9D11B680360012000E000207047C046EE
:104440004368002B04D107E01A68002A05D0130046
:104450008B42F9D1002004E0031D196000230120E4
:104460000B6070474368002B0BD0043003E018004A
:104470001B68002B05D08B42F9D11B68036001201B
:1044800000E000207047C046F0B55746DE464E4675
:104490004546E0B53E4B83B018CB0093019483684A
:1044A0008246002B2BD0082353449846FDF7BAF8D8
:1044B00053469B6804000D00002B20D00022474685
:1044C0001E0094469946B268F36820002900801ABD
:1044D0009941002902DB14001D00BC4637003668F4
:1044E000002EF0D16246002A49D0116850460B6870
:1044F00013604B68984753469B68002BD6D15346B0
:104500005C68002C29D000255646237A002B32D037
:10451000210063682572300098472468002CF4D18C
:10452000B368B246002B18D0009C019D1E0003E02A
:1045300004000D00002E0ED0330022009868D968C8
:104540002B00121A8B413668002BF1DCF2D1002AC5
:10455000EED1002EF0D100940195009B019C5246B3
:10456000180021001361546103B0F0BCBB46B24691
:10457000A946A046F0BD2468002CC6D1D0E753461A
:104580005C68002CBFD1009C019D4E46D4E7C0461C
:1045900068B80010F0B5C646804600B5FDF742F891
:1045A00043469B6804000D00002B0AD09868D96828
:1045B00026002F00361A8F41002F10DA1B68002BBF
:1045C000F4D143465B68002B03D10AE01B68002B43
:1045D00002D0187A0028F9D080BCB846F0BD01207E
:1045E000FAE70020F8E7C046F0B5C646431E00B51E
:1045F0000A3340D8072304001A000834224023421B
:1046000046D101F035FC3C4A27001568002D51D0F9
:10461000002C36DB394E33689846A34231D33848F4
:10462000036804E01A68002A04D0180013005968CF
:10463000A142F7D3AB4224D01D001A6808350260AE
:104640000F1B102F04D919194F600A600160210057
:1046500042462C48521A04683260A24200D20260DC
:10466000802212060A435A6000221A60264A136802
:104670000133136006E001F0FBFB1F4A1368002BB7
:1046800016D0002501F0FCFB280080BCB846F0BD28
:104690001300093BA342EED31030841A01F0E8FB6B
:1046A000154A27001568002D04D0002FB2DCE8E77A
:1046B00000270024072515490B0008000D4202D0F1
:1046C000CB1DAB43180000250D4EAC467560306025
:1046D00007260F4D4D19B543156062466A602A6082
:1046E000084AEB1A1360054A436005601360002F07
:1046F00000DD8FE7C5E7C046BC1C0020E02002209B
:104700001C210220EC200220F82002206C20002036
:10471000F8FF010070B5002804D008384368040091
:10472000002B00DB70BD0268002AFBD15B005B0838
:104730004360060001F09CFB194A616813685B182E
:104740001360184B1A001B689C42FBD85068151860
:10475000AC420DD0601883421AD02360B24200D020
:104760001660114A13680133136001F089FBD9E721
:104770000918501851608342F3D10C4816000068A4
:1047800098420AD058681B68411871603360E5E7A9
:10479000064800688342F5D1DFE71360E1E7C046D1
:1047A000E02002201C210220FC200220BC1C002052
:1047B0007047C0460000000000000000000000003C
:1047C0000B4A13681868203080F30988022080F3B0
:1047D0001488BFF36F8F3FBCAE4608BC04BC62B602
:1047E0001847C046C046C046C046C046C046C04640
:1047F000B01C0020000000000000000000000000CD
:10480000EFF30980164B1A6820381060F0C0444658
:104810004D4656465F46F0C00D221207146E556E87
:10482000566F176F3038F0C008B572B601F048FC0B
:1048300062B60CBC116808681030F0C8A046A946E2
:10484000B246BB4680F309880D2212073038F0C803
:104850001466556656671767F0C81847C046C046C5
:10486000B01C0020D02300B51B061A6D83B0D20700
:1048700004D501219A6D1A6D1142FBD1D023FF227C
:104880001B061A650023114A01931168EFF3108C7F
:1048900072B60B68002BFCD0BFF35F8F00230C486F
:1048A000126801680360BFF35F8F13608CF3108898
:1048B000084B01AA186800F005FB019B002B03D0F0
:1048C0008022054B52051A6003B000BDAC1C0020CD
:1048D00074200220DC20022004ED00E010B5FBF77C
:1048E00035FEC04610B58024031F64041C60043BE1
:1048F00019600349043B1960143B40381A6010BD2D
:10490000DD4800108022044B52051A60BFF34F8F20
:10491000BFF36F8F7047C04604ED00E072B6044AE3
:10492000136801331360BFF34F8FBFF36F8F70476E
:1049300070200220094A1368013B1360002B0CD140
:1049400007490A68002A07D00B6006490968BFF3C7
:104950005F8F136081F3108862B670477020022069
:10496000481F00206C200220EFF3108072B67047C1
:1049700080F310887047C04610B5FFF7F5FF0400BC
:1049800001F08CFB002803D08022034B52051A60F3
:104990002000FFF7EDFF10BD04ED00E0002310B58F
:1049A000084A094C052023601360FCF7FFFFFA2139
:1049B0008900FDF70FFA054B0138186007232360C3
:1049C00010BDC04618E000E010E000E014E000E098
:1049D000FF221F4B1204196810B50A431A60FF2208
:1049E000196812060A431A601A490E2002F0DCF810
:1049F00019490F2002F0D8F818490B2002F0D4F81A
:104A0000FFF7CCFF0022164B1A60D0231B06154A75
:104A10001C681470FF221A651A6DD20704D5012193
:104A20009A6D1A6D1142FBD10F34FF212000FCF763
:104A300071F820000C49FBF789FE01212000FBF7EB
:104A40006BFEFFF7BDFE01F03BFBFBF77FFDC046B1
:104A500020ED00E00148001079490010B147001036
:104A6000702002204807002065480010D02310B5B0
:104A70001B061868074B1B78834200D010BDEFF36C
:104A80000583002B02D05B00C018F7E701F090FD12
:104A9000F4E7C0464807002000B5134A03681078C1
:104AA000D0221206126883B0904208D0BFF35F8F05
:104AB00000221A6081F3108820BF03B000BD0B4AAA
:104AC00013600B4A116002210A4AFF319B189B10A8
:104AD0009940094B0122186801235B420093090A9F
:104AE000002300F04BF9E8E748070020481F0020AA
:104AF0006C20022000FFFF2FDC2002202B4B0268DD
:104B000030B5D21802239210FF339340284A83B065
:104B10001478D022120612681B0A944221D040BF9A
:104B2000244C02682568AA4237D02A68002AFCD0A3
:104B3000BFF35F8F204A944612681A4363461A6097
:104B40002368BFF35F8F00221A600268D020002321
:104B500000064365BFF35F8F136081F3108803B0D5
:104B600030BD40BF0268BFF35F8F0024146081F343
:104B70001088EFF305821149D2B20868002A11D0DB
:104B8000190001AA019400F09DF9019B002BE6D0C9
:104B900080220B4B52051A60E1E7074C206818434E
:104BA0002060D3E7190000F045F9D8E700FFFF2F98
:104BB00048070020AC1C002074200220DC200220CA
:104BC00004ED00E0F0B51D00304B14001A78D0233E
:104BD0001B061B6806000F0083B09A420CD00368C6
:104BE000BFF35F8F00221A6081F310882000290034
:104BF000FCF754FC03B0F0BDFCF714FD22002B00C1
:104C0000121A8B41190001231000214A5B428018BF
:104C10005941366800291EDC19D0BFF35F8F00238D
:104C2000336087F310881B4B5A6A954205D89B6AFC
:104C30000120A342DED29542DCD18022164B5205E0
:104C40001A60BFF34F8FBFF36F8F0020D2E7FA23B4
:104C50009B009842E1D3FA2200239200FDF7E0F88E
:104C60000028DAD002210D4BFF311E600C4B0122CF
:104C70001F600C4BF618B610B1400B4B090A1E68AA
:104C800000900023300000F079F8CCE748070020BE
:104C900018FCFFFF0040054004ED00E0481F002025
:104CA0006C20022000FFFF2FDC20022010B5FBF754
:104CB000F5FC054A054B80188000186000F052F89A
:104CC000034B186010BDC04640000034AC1C0020EF
:104CD000DC200220F0B5D6464F464646C0B5060059
:104CE0000F00050001F0C4F83368346919000C3571
:104CF00039438C463160A5422BD000239A4680234D
:104D0000DB04994613E04746002F0DD080277F042F
:104D10003A4202D052461A43924680239B041943DA
:104D200001F0AEFB33689C466146A5420FD02000DF
:104D30000F000268646813021B0A1F40B8464F4602
:104D40003A42E0D04345E1D06146A542EFD1534617
:104D50009943316001F094F8E0BCBA46B146A846E8
:104D6000F0BDC04610B51C20FFF73EFC041E03D06A
:104D7000002308C000F0B2F8200010BDF0B5C64610
:104D80000D00060000B51F00904601F071F82B00E1
:104D900034682340002F0DD1002B28D04346002B30
:104DA00028D02300AB43336001F06AF8200080BCB8
:104DB000B846F0BD9D42F1D0069B002B1AD0434669
:104DC00080215A1E9341C9041B061943069A2943A0
:104DD000301D01F007FA01F053F8002824D001F04B
:104DE000A9FC040083010DD52402240ADEE7069BFA
:104DF000002B02D101F044F8D8E741464B1E9941FF
:104E00000906E3E7FFF78AFD346823002B40002FF3
:104E10000DD1002B05D04346002B02D02300AB431D
:104E20003360FFF787FDDFE7FFF76CFDD7E79D42B3
:104E3000F7D1F0E7F0B5D6464F4646460500C0B577
:104E40000F00060001F014F82B682C6919000C36CD
:104E500039438C462960A6422BD000239A468023F2
:104E6000DB04994613E04746002F0DD080277F04CE
:104E70003A4202D052461A43924680239B04194379
:104E800001F0FEFA2B689C466146A6420FD0200036
:104E90000F000268646813021B0A1F40B8464F46A1
:104EA0003A42E0D04345E1D06146A642EFD15346B5
:104EB0009943296000F0E4FF2868E0BCBA46B14697
:104EC000A846F0BD844610B513000A0002486146AA
:104ED00001F054FE10BDC046D54C0010030008334D
:104EE00001224360C3600361002352428260036079
:104EF0007047C046002303617047C04630B50500C7
:104F00002B0008680C000833421C0DD019005B68A8
:104F10001A688242FAD963609C602B68A1600133F1
:104F20004C6025612B6030BD29694B68F3E7C046B2
:104F30000369416882688A6051605968814205D07E
:104F40000022026118680138186070475A60F7E75C
:104F5000F0B5DE464E4657464546E0B583B00600FE
:104F6000FFF7DCFC4523F45C64B2002C1EDD213B22
:104F70009C46B444E04608E0AA6BEB6B01969A426B
:104F800041D3013CE4B2002C10D0B56C002DF3D11C
:104F9000736A002B0AD0404601F004FA0028F0D0D2
:104FA00001F000FB013CE4B2002CEED14523FF22CE
:104FB000F254FFF7BFFCFFF7B1FC44233500F45C6B
:104FC000103564B2002C04DC11E0013CE4B2002C8A
:104FD0000DD03369002B0AD0280001F0E3F9002836
:104FE000F3D0013CE4B201F0DDFA002CF1D144230E
:104FF000FF22F254FFF79EFC03B0F0BCBB46B24662
:10500000A946A046F0BD4523EF5CAB6B2A6C01338B
:1050100099467FB2002A12D12A689246002A2AD0E5
:10502000AB637B1C1CD16B6A002BAAD028002430F8
:1050300001F0B8F90028A4D001F0B4FAB2E768682A
:1050400001A9FDF7EFFA6B682A6C9B18AA686B60E0
:1050500093420ED32B686B604B46AB637B1CE2D054
:1050600001F016F8B84200D88BE745230137EF541A
:1050700087E74B46D4E7A86801F0EAFA5346AB60ED
:105080004B468346AB637B1C09D16B6A002B0ED168
:105090005B46002B00D174E701F084FA82E700F050
:1050A000F7FFB842F4D945230137EF54F0E7280061
:1050B000243001F077F9002800D071E7E8E7C04616
:1050C000F0B5C64600B5846C82B0A26BE36B0025D8
:1050D00001909A4204D3280002B080BCB846F0BDCB
:1050E0004523E35C226C5EB2A36B1F00002A1CD038
:1050F000606801A9FDF796FA6368226C9B18A268A4
:105100006360934201D32368636000257B1CA36323
:10511000731C15D1636A002BDDD02000243001F010
:1051200041F90028D7D00125D5E723689846002B00
:10513000EBD1A06801F08CFA43460500A360E5E7D7
:1051400000F0A6FF8642C6D24522731CA354C2E7D4
:10515000F8B505000E001700002841D0030C0A0C1A
:10516000002B42D1002A30D1300068430300553370
:1051700036D85430FFF738FA041E31D00300002E21
:1051800031D12360E5632664FFF7C8FB216CE36B34
:1051900022684B43D0185B1A6260D218E260FF238A
:1051A00000254422A0602000A563A3540132A3542B
:1051B0001030FFF793FE20002430FFF78FFEFFF73B
:1051C000B9FB5023E754A5640BE0131CA9B2B2B29B
:1051D0004A4380B29BB24343120C9B181B0CC3D0B2
:1051E00000242000F8BD5433CBE7002AF8D1081C76
:1051F000ECE7C04670B506000D00002400282BD057
:10520000884229D35420FFF7EFF9041E24D0C66347
:10521000002600600664FFF781FB216CE36B2268C7
:105220004B43D0185B1A6260D218E260FF2344221D
:10523000A0602000A663A3540132A3541030FFF7EE
:105240004DFE20002430FFF749FEFFF773FB50238B
:105250000222E254A664A563200070BDF0B5CE46DC
:10526000474680B585B00400884699460192022BD6
:1052700000D19DE0FFF752FBA36BE26B00274425B2
:1052800000269A4232D8019B002B64D0002F5ED0BA
:10529000FFF750FB00F0ECFDFFF740FB635D5BB2F6
:1052A000013300D166554522A35C5BB2013300D1C6
:1052B000A654FFF73FFB01A902A801F03BF9002823
:1052C00000D06FE0FFF72AFBA26BE36B9A422CD071
:1052D000FFF730FB2000FFF73BFE00F0D1FD012778
:1052E000FFF71CFBA36BE26B9A42CCD9226CA66B36
:1052F000A56B002A37D1236800209846002B00D1E7
:1053000082E0A36C0135A563002B00D16FE04B4612
:10531000022B01D1002E04D12000FFF7D1FE00287E
:105320003DD1FFF707FB012018E0FFF703FB20004A
:105330000199103000F006FF2000FFF709FE00F091
:105340009FFD0028CBD1FFF7DDFA0127C8E702A8AF
:1053500001F0E4F89CE7FFF7EDFA002005B0C0BCCF
:10536000B946B046F0BD4B46002B29D14146606896
:10537000FDF758F96368226CA16C9B18A268636002
:105380000135934239D2A5630029C5D1636A002B48
:10539000C7D02000243001F005F80028C1D0FFF765
:1053A000B1FABEE72000FFF7D3FD00F069FDD4E7B6
:1053B000FFF7B4FA226CA36BA66BA56B002A9AD0F8
:1053C0004146E068FDF72EF9E368226C21689B1ADC
:1053D000E3608B4202D2A3689B1AE3604A46A36C47
:1053E000022A17D00135A563002B95D1CEE7636A59
:1053F000002BCED10028D2D193E72368A563636048
:10540000002900D088E7C1E7A06801F021F94346F0
:10541000A36076E7002D04D0A563002B00D079E7C8
:10542000B4E70122A263002B00D073E7AEE7C046C9
:10543000F8B557464E46DE4645460400E0B592466E
:105440001E008946FFF790FAA26BE36B07009A42B1
:1054500036D300253300022E09D03800FFF788FA32
:105460002800F0BCBB46B246A946A046F8BD43336F
:10547000E35C226C5BB29846A36BA56B9B46002A4B
:1054800028D04946E068FDF7CDF8E368226C216832
:105490009B1AE3608B4202D2A3689B1AE360022E40
:1054A0004ED043460135A56301333AD000F0F0FDFC
:1054B0004346834202D245220133A3540125CCE75F
:1054C0004523E35C226C5BB29846A36BA56B9B46BD
:1054D000002A12D123689946002B45D04346013556
:1054E000A5630133E2D1A36C002B32D0022E1BD175
:1054F0005B46002B18D00125AFE7002EC1D14946ED
:105500006068FDF78FF86368226C01359B18A2680C
:105510006360934201D3236863604346A56301330C
:10552000C4D1A36C002B14D02000FFF7C9FD0028C4
:10553000C4D05246002AC1D00123012513608CE754
:10554000002D17D04346A5630133AFD1A36C002BC8
:10555000CED1636A002BB1D02000243000F022FFAE
:105560000028E6D1012578E7A06801F071F84B46E4
:10557000A360B3E70123A36343460133E6D095E775
:10558000F0B5C646040000B584B088460192FFF726
:10559000C5F9A76B002F5BD1019B002B39D002A866
:1055A00000F0BCFF44264525FFF7C4F900F060FC7D
:1055B000FFF7B4F9A35D5BB2013301D10023A3551A
:1055C000635D5BB2013301D100236355FFF7B2F98C
:1055D00001A902A800F0AEFF002821D1FFF79EF933
:1055E000A36B002B29D1FFF7A5F9200001992430E6
:1055F00000F0A8FD2000FFF7ABFC00F041FC002804
:1056000023D0FFF78BF9A76B002F21D1019B002B33
:10561000CAD1FFF78FF9002004B080BCB846F0BDB6
:105620002000FFF795FC00F02BFCFFF777F9A36B48
:10563000002BEED0FFF77EF9E3E7FFF77BF92000C0
:10564000FFF786FC00F01CFCDBE7FFF75BF9D8E70F
:10565000226C002A08D0E168A3688918E1609942A9
:105660000BD24046FCF7DEFF7B1EA3632369002BB1
:1056700006D1FFF75FF90120CEE72168E160F0E78E
:105680002000103000F08EFE0028F2D0FFF73AF92B
:10569000EFE7C046F0B5C646040000B584B00191FE
:1056A000FFF73CF9A36B002B00D07CE0019B002BA3
:1056B00065D002A800F032FF002344269846002758
:1056C0004525FFF737F900F0D3FBFFF727F9A35D76
:1056D0005BB2013300D1A755635D5BB2013300D1EA
:1056E0006755FFF727F901A902A800F023FF00285A
:1056F0001ED1FFF713F9A36B002B30D1FFF71AF976
:105700002368002B46D020000199243000F01AFDB8
:105710002000FFF71DFC00F0B3FB002832D0FFF79C
:10572000FDF8A36B002B3ED1019B002BC9D126E0D5
:105730002000FFF70DFC00F0A3FBFFF7EFF8A36BD1
:10574000002B09D1FFF7F6F84346002B0FD10020BC
:1057500004B080BCB846F0BDFFF7ECF8DFE7FFF718
:10576000E9F82000FFF7F4FB00F08AFBD7E7FFF72A
:10577000D5F8616A002908D1A06800F09BFFFFF707
:10578000D9F8E4E7FFF7BEF8C9E72021236B1B68CF
:10579000C91AF1E7FFF7C2F8A06800F00FFF8046D2
:1057A000FFF7C8F8AFE7013BA3632368002B0FD0D6
:1057B0002369002B03D1FFF7BDF80120C8E72000C3
:1057C000103000F0EFFD0028F5D0FFF79BF8F2E76E
:1057D00000F0BCFFA060EBE710B5002933D0434BCD
:1057E0005A68904200D174E01A68002A2CD0DA6816
:1057F000904200D177E09A68002A3ED05A699042E0
:1058000000D16EE01A69002A3DD0DA69904262D078
:105810009A69002A3DD05A6A904242D01A6A002AF8
:1058200043D0DA6A904258D09A6A002A43D05A6B21
:10583000904254D01A6B002A43D0DA6B904246D083
:105840009A6B002A2AD010BDDA6890424BD05A6970
:10585000904246D01A00DC69A0423CD05C6AA0426B
:105860001FD0DC6AA04238D05C6BA04237D0DC6B22
:10587000A0422CD011605060E5E75A69904230D0C8
:105880001A000832E7E7DA69904224D01A00103291
:10589000E4E75A6A904204D0154AE2E738331A0026
:1058A000E8E70422D2009A18E4E7DA6A904214D0BA
:1058B0001A002032D8E75A6B904210D01A002832D2
:1058C000D5E7DA6B94461A0030326045D2D1072210
:1058D000E8E70022E6E70322E4E70522E2E7062202
:1058E000E0E70222DEE70122DCE7C046701000207C
:1058F0008810002070B5040016000D00FFF70EF8A8
:105900004422A35C5BB2013301D10023A35445229E
:10591000A35C5BB2013301D10023A354FFF70AF863
:10592000A36B002B03D02000FFF712FB70BD2000FB
:1059300032002900243000F0B7FCF4E7F0B5C64689
:1059400000B50400FEF7EAFF364A374F136801330B
:1059500013603B68002B34D0344BE26A98461B68D6
:10596000002B28D0324E33490B6801330B6063643F
:10597000314B1968914200D21A6093009B189B002A
:10598000F1184A68A26090680500E060201D686018
:105990009060F25861610132F250FEF7CBFF43464E
:1059A0001B68002B04D03B68DA6AE36A9A4211D381
:1059B00080BCB846F0BD3B68DB6A9342D2D83C60FD
:1059C000D0E73C601368012B07D0184BE26A984679
:1059D000174EC8E7FEF796FFEAE7154E3500280098
:1059E000FFF77CFA154B1435AB42F8D1144B9846AF
:1059F0001800FFF773FA134D2800FFF76FFA1248EB
:105A0000FFF76CFA1148FFF769FA1148FFF766FAD9
:105A10004246104B1A60104BE26A1D60034B9846D9
:105A2000A1E7C04678200220B01C002018210220E7
:105A3000C81C00208420022088200220481F00204B
:105A4000B4200220C8200220042102203821022094
:105A500024210220B81C0020C01C0020F0B5C6463E
:105A6000124B00B59846124D124F134E14E0FEF73C
:105A700055FFFB68DC68201DFFF75AFA3368013BCD
:105A800033602B68013B2B60FEF754FF206BFEF761
:105A900041FE2000FEF73EFE2B68002BE7D1434677
:105AA0001B68012BF8D9FEF72DFFF5E7C81C002075
:105AB0007C2002203821022078200220F0B55746B1
:105AC000DE464E4645465E4BE0B51F6883B0013763
:105AD0001F60002F66D05B490B689F4277D35A4BFB
